{
	"SimpleContract.sol": {
		"SimpleContract2": {
			"abi": [
				{
					"constant": false,
					"inputs": [
						{
							"internalType": "uint256",
							"name": "x",
							"type": "uint256"
						}
					],
					"name": "addition",
					"outputs": [
						{
							"internalType": "uint256",
							"name": "y",
							"type": "uint256"
						}
					],
					"payable": false,
					"stateMutability": "nonpayable",
					"type": "function"
				},
				{
					"constant": true,
					"inputs": [],
					"name": "currValue",
					"outputs": [
						{
							"internalType": "uint256",
							"name": "",
							"type": "uint256"
						}
					],
					"payable": false,
					"stateMutability": "view",
					"type": "function"
				},
				{
					"constant": false,
					"inputs": [
						{
							"internalType": "uint256",
							"name": "x",
							"type": "uint256"
						}
					],
					"name": "difference",
					"outputs": [
						{
							"internalType": "uint256",
							"name": "y",
							"type": "uint256"
						}
					],
					"payable": false,
					"stateMutability": "nonpayable",
					"type": "function"
				},
				{
					"constant": false,
					"inputs": [
						{
							"internalType": "uint256",
							"name": "x",
							"type": "uint256"
						}
					],
					"name": "division",
					"outputs": [
						{
							"internalType": "uint256",
							"name": "y",
							"type": "uint256"
						}
					],
					"payable": false,
					"stateMutability": "nonpayable",
					"type": "function"
				}
			],
			"devdoc": {
				"methods": {}
			},
			"evm": {
				"assembly": "    /* \"SimpleContract.sol\":25:429  contract SimpleContract2\r... */\n  mstore(0x40, 0x80)\n  callvalue\n    /* \"--CODEGEN--\":8:17   */\n  dup1\n    /* \"--CODEGEN--\":5:7   */\n  iszero\n  tag_1\n  jumpi\n    /* \"--CODEGEN--\":30:31   */\n  0x00\n    /* \"--CODEGEN--\":27:28   */\n  dup1\n    /* \"--CODEGEN--\":20:32   */\n  revert\n    /* \"--CODEGEN--\":5:7   */\ntag_1:\n    /* \"SimpleContract.sol\":25:429  contract SimpleContract2\r... */\n  pop\n  dataSize(sub_0)\n  dup1\n  dataOffset(sub_0)\n  0x00\n  codecopy\n  0x00\n  return\nstop\n\nsub_0: assembly {\n        /* \"SimpleContract.sol\":25:429  contract SimpleContract2\r... */\n      mstore(0x40, 0x80)\n      callvalue\n        /* \"--CODEGEN--\":8:17   */\n      dup1\n        /* \"--CODEGEN--\":5:7   */\n      iszero\n      tag_1\n      jumpi\n        /* \"--CODEGEN--\":30:31   */\n      0x00\n        /* \"--CODEGEN--\":27:28   */\n      dup1\n        /* \"--CODEGEN--\":20:32   */\n      revert\n        /* \"--CODEGEN--\":5:7   */\n    tag_1:\n        /* \"SimpleContract.sol\":25:429  contract SimpleContract2\r... */\n      pop\n      jumpi(tag_2, lt(calldatasize, 0x04))\n      shr(0xe0, calldataload(0x00))\n      dup1\n      0x2d9c8bcb\n      eq\n      tag_3\n      jumpi\n      dup1\n      0x45bd069b\n      eq\n      tag_4\n      jumpi\n      dup1\n      0x543209b7\n      eq\n      tag_5\n      jumpi\n      dup1\n      0x6db43e6d\n      eq\n      tag_6\n      jumpi\n    tag_2:\n      0x00\n      dup1\n      revert\n        /* \"SimpleContract.sol\":352:426  function currValue() public view returns (uint){\r... */\n    tag_3:\n      tag_7\n      tag_8\n      jump\t// in\n    tag_7:\n      mload(0x40)\n      dup1\n      dup3\n      dup2\n      mstore\n      0x20\n      add\n      swap2\n      pop\n      pop\n      mload(0x40)\n      dup1\n      swap2\n      sub\n      swap1\n      return\n        /* \"SimpleContract.sol\":259:346  function division(uint x) public returns (uint y){\r... */\n    tag_4:\n      tag_9\n      0x04\n      dup1\n      calldatasize\n      sub\n        /* \"--CODEGEN--\":13:15   */\n      0x20\n        /* \"--CODEGEN--\":8:11   */\n      dup2\n        /* \"--CODEGEN--\":5:16   */\n      lt\n        /* \"--CODEGEN--\":2:4   */\n      iszero\n      tag_10\n      jumpi\n        /* \"--CODEGEN--\":29:30   */\n      0x00\n        /* \"--CODEGEN--\":26:27   */\n      dup1\n        /* \"--CODEGEN--\":19:31   */\n      revert\n        /* \"--CODEGEN--\":2:4   */\n    tag_10:\n        /* \"SimpleContract.sol\":259:346  function division(uint x) public returns (uint y){\r... */\n      dup2\n      add\n      swap1\n      dup1\n      dup1\n      calldataload\n      swap1\n      0x20\n      add\n      swap1\n      swap3\n      swap2\n      swap1\n      pop\n      pop\n      pop\n      tag_11\n      jump\t// in\n    tag_9:\n      mload(0x40)\n      dup1\n      dup3\n      dup2\n      mstore\n      0x20\n      add\n      swap2\n      pop\n      pop\n      mload(0x40)\n      dup1\n      swap2\n      sub\n      swap1\n      return\n        /* \"SimpleContract.sol\":71:158  function addition(uint x) public returns (uint y){\r... */\n    tag_5:\n      tag_12\n      0x04\n      dup1\n      calldatasize\n      sub\n        /* \"--CODEGEN--\":13:15   */\n      0x20\n        /* \"--CODEGEN--\":8:11   */\n      dup2\n        /* \"--CODEGEN--\":5:16   */\n      lt\n        /* \"--CODEGEN--\":2:4   */\n      iszero\n      tag_13\n      jumpi\n        /* \"--CODEGEN--\":29:30   */\n      0x00\n        /* \"--CODEGEN--\":26:27   */\n      dup1\n        /* \"--CODEGEN--\":19:31   */\n      revert\n        /* \"--CODEGEN--\":2:4   */\n    tag_13:\n        /* \"SimpleContract.sol\":71:158  function addition(uint x) public returns (uint y){\r... */\n      dup2\n      add\n      swap1\n      dup1\n      dup1\n      calldataload\n      swap1\n      0x20\n      add\n      swap1\n      swap3\n      swap2\n      swap1\n      pop\n      pop\n      pop\n      tag_14\n      jump\t// in\n    tag_12:\n      mload(0x40)\n      dup1\n      dup3\n      dup2\n      mstore\n      0x20\n      add\n      swap2\n      pop\n      pop\n      mload(0x40)\n      dup1\n      swap2\n      sub\n      swap1\n      return\n        /* \"SimpleContract.sol\":164:253  function difference(uint x) public returns (uint y){\r... */\n    tag_6:\n      tag_15\n      0x04\n      dup1\n      calldatasize\n      sub\n        /* \"--CODEGEN--\":13:15   */\n      0x20\n        /* \"--CODEGEN--\":8:11   */\n      dup2\n        /* \"--CODEGEN--\":5:16   */\n      lt\n        /* \"--CODEGEN--\":2:4   */\n      iszero\n      tag_16\n      jumpi\n        /* \"--CODEGEN--\":29:30   */\n      0x00\n        /* \"--CODEGEN--\":26:27   */\n      dup1\n        /* \"--CODEGEN--\":19:31   */\n      revert\n        /* \"--CODEGEN--\":2:4   */\n    tag_16:\n        /* \"SimpleContract.sol\":164:253  function difference(uint x) public returns (uint y){\r... */\n      dup2\n      add\n      swap1\n      dup1\n      dup1\n      calldataload\n      swap1\n      0x20\n      add\n      swap1\n      swap3\n      swap2\n      swap1\n      pop\n      pop\n      pop\n      tag_17\n      jump\t// in\n    tag_15:\n      mload(0x40)\n      dup1\n      dup3\n      dup2\n      mstore\n      0x20\n      add\n      swap2\n      pop\n      pop\n      mload(0x40)\n      dup1\n      swap2\n      sub\n      swap1\n      return\n        /* \"SimpleContract.sol\":352:426  function currValue() public view returns (uint){\r... */\n    tag_8:\n        /* \"SimpleContract.sol\":394:398  uint */\n      0x00\n        /* \"SimpleContract.sol\":417:418  z */\n      dup1\n      sload\n        /* \"SimpleContract.sol\":410:418  return z */\n      swap1\n      pop\n        /* \"SimpleContract.sol\":352:426  function currValue() public view returns (uint){\r... */\n      swap1\n      jump\t// out\n        /* \"SimpleContract.sol\":259:346  function division(uint x) public returns (uint y){\r... */\n    tag_11:\n        /* \"SimpleContract.sol\":301:307  uint y */\n      0x00\n        /* \"SimpleContract.sol\":323:324  5 */\n      0x05\n        /* \"SimpleContract.sol\":321:322  x */\n      dup3\n        /* \"SimpleContract.sol\":321:324  x/5 */\n      dup2\n      tag_20\n      jumpi\n      invalid\n    tag_20:\n      div\n        /* \"SimpleContract.sol\":319:320  z */\n      0x00\n        /* \"SimpleContract.sol\":319:324  z=x/5 */\n      dup2\n      swap1\n      sstore\n      pop\n        /* \"SimpleContract.sol\":337:338  z */\n      sload(0x00)\n        /* \"SimpleContract.sol\":335:338  y=z */\n      swap1\n      pop\n        /* \"SimpleContract.sol\":259:346  function division(uint x) public returns (uint y){\r... */\n      swap2\n      swap1\n      pop\n      jump\t// out\n        /* \"SimpleContract.sol\":71:158  function addition(uint x) public returns (uint y){\r... */\n    tag_14:\n        /* \"SimpleContract.sol\":113:119  uint y */\n      0x00\n        /* \"SimpleContract.sol\":135:136  5 */\n      0x05\n        /* \"SimpleContract.sol\":133:134  x */\n      dup3\n        /* \"SimpleContract.sol\":133:136  x+5 */\n      add\n        /* \"SimpleContract.sol\":131:132  z */\n      0x00\n        /* \"SimpleContract.sol\":131:136  z=x+5 */\n      dup2\n      swap1\n      sstore\n      pop\n        /* \"SimpleContract.sol\":149:150  z */\n      sload(0x00)\n        /* \"SimpleContract.sol\":147:150  y=z */\n      swap1\n      pop\n        /* \"SimpleContract.sol\":71:158  function addition(uint x) public returns (uint y){\r... */\n      swap2\n      swap1\n      pop\n      jump\t// out\n        /* \"SimpleContract.sol\":164:253  function difference(uint x) public returns (uint y){\r... */\n    tag_17:\n        /* \"SimpleContract.sol\":208:214  uint y */\n      0x00\n        /* \"SimpleContract.sol\":230:231  5 */\n      0x05\n        /* \"SimpleContract.sol\":228:229  x */\n      dup3\n        /* \"SimpleContract.sol\":228:231  x-5 */\n      sub\n        /* \"SimpleContract.sol\":226:227  z */\n      0x00\n        /* \"SimpleContract.sol\":226:231  z=x-5 */\n      dup2\n      swap1\n      sstore\n      pop\n        /* \"SimpleContract.sol\":244:245  z */\n      sload(0x00)\n        /* \"SimpleContract.sol\":242:245  y=z */\n      swap1\n      pop\n        /* \"SimpleContract.sol\":164:253  function difference(uint x) public returns (uint y){\r... */\n      swap2\n      swap1\n      pop\n      jump\t// out\n\n    auxdata: 0xa265627a7a7231582021b554388b91cce8edd91675269b643a2c26a16e44645ed33025a3aa600e347d64736f6c63430005110032\n}\n",
				"bytecode": {
					"linkReferences": {},
					"object": "608060405234801561001057600080fd5b506101bc806100206000396000f3fe608060405234801561001057600080fd5b506004361061004c5760003560e01c80632d9c8bcb1461005157806345bd069b1461006f578063543209b7146100b15780636db43e6d146100f3575b600080fd5b610059610135565b6040518082815260200191505060405180910390f35b61009b6004803603602081101561008557600080fd5b810190808035906020019092919050505061013e565b6040518082815260200191505060405180910390f35b6100dd600480360360208110156100c757600080fd5b810190808035906020019092919050505061015b565b6040518082815260200191505060405180910390f35b61011f6004803603602081101561010957600080fd5b8101908080359060200190929190505050610171565b6040518082815260200191505060405180910390f35b60008054905090565b60006005828161014a57fe5b046000819055506000549050919050565b6000600582016000819055506000549050919050565b600060058203600081905550600054905091905056fea265627a7a7231582021b554388b91cce8edd91675269b643a2c26a16e44645ed33025a3aa600e347d64736f6c63430005110032",
					"opcodes": "PUSH1 0x80 PUSH1 0x40 MSTORE CALLVALUE DUP1 ISZERO PUSH2 0x10 JUMPI PUSH1 0x0 DUP1 REVERT JUMPDEST POP PUSH2 0x1BC DUP1 PUSH2 0x20 PUSH1 0x0 CODECOPY PUSH1 0x0 RETURN INVALID PUSH1 0x80 PUSH1 0x40 MSTORE CALLVALUE DUP1 ISZERO PUSH2 0x10 JUMPI PUSH1 0x0 DUP1 REVERT JUMPDEST POP PUSH1 0x4 CALLDATASIZE LT PUSH2 0x4C JUMPI PUSH1 0x0 CALLDATALOAD PUSH1 0xE0 SHR DUP1 PUSH4 0x2D9C8BCB EQ PUSH2 0x51 JUMPI DUP1 PUSH4 0x45BD069B EQ PUSH2 0x6F JUMPI DUP1 PUSH4 0x543209B7 EQ PUSH2 0xB1 JUMPI DUP1 PUSH4 0x6DB43E6D EQ PUSH2 0xF3 JUMPI JUMPDEST PUSH1 0x0 DUP1 REVERT JUMPDEST PUSH2 0x59 PUSH2 0x135 JUMP JUMPDEST PUSH1 0x40 MLOAD DUP1 DUP3 DUP2 MSTORE PUSH1 0x20 ADD SWAP2 POP POP PUSH1 0x40 MLOAD DUP1 SWAP2 SUB SWAP1 RETURN JUMPDEST PUSH2 0x9B PUSH1 0x4 DUP1 CALLDATASIZE SUB PUSH1 0x20 DUP2 LT ISZERO PUSH2 0x85 JUMPI PUSH1 0x0 DUP1 REVERT JUMPDEST DUP2 ADD SWAP1 DUP1 DUP1 CALLDATALOAD SWAP1 PUSH1 0x20 ADD SWAP1 SWAP3 SWAP2 SWAP1 POP POP POP PUSH2 0x13E JUMP JUMPDEST PUSH1 0x40 MLOAD DUP1 DUP3 DUP2 MSTORE PUSH1 0x20 ADD SWAP2 POP POP PUSH1 0x40 MLOAD DUP1 SWAP2 SUB SWAP1 RETURN JUMPDEST PUSH2 0xDD PUSH1 0x4 DUP1 CALLDATASIZE SUB PUSH1 0x20 DUP2 LT ISZERO PUSH2 0xC7 JUMPI PUSH1 0x0 DUP1 REVERT JUMPDEST DUP2 ADD SWAP1 DUP1 DUP1 CALLDATALOAD SWAP1 PUSH1 0x20 ADD SWAP1 SWAP3 SWAP2 SWAP1 POP POP POP PUSH2 0x15B JUMP JUMPDEST PUSH1 0x40 MLOAD DUP1 DUP3 DUP2 MSTORE PUSH1 0x20 ADD SWAP2 POP POP PUSH1 0x40 MLOAD DUP1 SWAP2 SUB SWAP1 RETURN JUMPDEST PUSH2 0x11F PUSH1 0x4 DUP1 CALLDATASIZE SUB PUSH1 0x20 DUP2 LT ISZERO PUSH2 0x109 JUMPI PUSH1 0x0 DUP1 REVERT JUMPDEST DUP2 ADD SWAP1 DUP1 DUP1 CALLDATALOAD SWAP1 PUSH1 0x20 ADD SWAP1 SWAP3 SWAP2 SWAP1 POP POP POP PUSH2 0x171 JUMP JUMPDEST PUSH1 0x40 MLOAD DUP1 DUP3 DUP2 MSTORE PUSH1 0x20 ADD SWAP2 POP POP PUSH1 0x40 MLOAD DUP1 SWAP2 SUB SWAP1 RETURN JUMPDEST PUSH1 0x0 DUP1 SLOAD SWAP1 POP SWAP1 JUMP JUMPDEST PUSH1 0x0 PUSH1 0x5 DUP3 DUP2 PUSH2 0x14A JUMPI INVALID JUMPDEST DIV PUSH1 0x0 DUP2 SWAP1 SSTORE POP PUSH1 0x0 SLOAD SWAP1 POP SWAP2 SWAP1 POP JUMP JUMPDEST PUSH1 0x0 PUSH1 0x5 DUP3 ADD PUSH1 0x0 DUP2 SWAP1 SSTORE POP PUSH1 0x0 SLOAD SWAP1 POP SWAP2 SWAP1 POP JUMP JUMPDEST PUSH1 0x0 PUSH1 0x5 DUP3 SUB PUSH1 0x0 DUP2 SWAP1 SSTORE POP PUSH1 0x0 SLOAD SWAP1 POP SWAP2 SWAP1 POP JUMP INVALID LOG2 PUSH6 0x627A7A723158 KECCAK256 0x21 0xB5 SLOAD CODESIZE DUP12 SWAP2 0xCC 0xE8 0xED 0xD9 AND PUSH22 0x269B643A2C26A16E44645ED33025A3AA600E347D6473 PUSH16 0x6C634300051100320000000000000000 "
				},
				"gasEstimates": {
					"creation": {
						"codeDepositCost": "88800",
						"executionCost": "135",
						"totalCost": "88935"
					},
					"external": {
						"addition(uint256)": "21142",
						"currValue()": "991",
						"difference(uint256)": "21164",
						"division(uint256)": "21139"
					}
				},
				"methodIdentifiers": {
					"addition(uint256)": "543209b7",
					"currValue()": "2d9c8bcb",
					"difference(uint256)": "6db43e6d",
					"division(uint256)": "45bd069b"
				}
			},
			"storageLayout": {
				"storage": [
					{
						"astId": 3,
						"contract": "SimpleContract.sol:SimpleContract2",
						"label": "z",
						"offset": 0,
						"slot": "0",
						"type": "t_uint256"
					}
				],
				"types": {
					"t_uint256": {
						"encoding": "inplace",
						"label": "uint256",
						"numberOfBytes": "32"
					}
				}
			},
			"userdoc": {
				"methods": {}
			}
		}
	}
}