{
	"Example1.sol": {
		"example1": {
			"abi": [
				{
					"inputs": [
						{
							"internalType": "string",
							"name": "_organizerName",
							"type": "string"
						},
						{
							"internalType": "string",
							"name": "_charityName",
							"type": "string"
						},
						{
							"internalType": "address",
							"name": "_charity",
							"type": "address"
						}
					],
					"payable": false,
					"stateMutability": "nonpayable",
					"type": "constructor"
				},
				{
					"constant": true,
					"inputs": [],
					"name": "charity",
					"outputs": [
						{
							"internalType": "address",
							"name": "",
							"type": "address"
						}
					],
					"payable": false,
					"stateMutability": "view",
					"type": "function"
				},
				{
					"constant": true,
					"inputs": [],
					"name": "charityName",
					"outputs": [
						{
							"internalType": "string",
							"name": "",
							"type": "string"
						}
					],
					"payable": false,
					"stateMutability": "view",
					"type": "function"
				},
				{
					"constant": false,
					"inputs": [],
					"name": "donate",
					"outputs": [],
					"payable": true,
					"stateMutability": "payable",
					"type": "function"
				},
				{
					"constant": true,
					"inputs": [],
					"name": "organizer",
					"outputs": [
						{
							"internalType": "address",
							"name": "",
							"type": "address"
						}
					],
					"payable": false,
					"stateMutability": "view",
					"type": "function"
				},
				{
					"constant": true,
					"inputs": [],
					"name": "organizerName",
					"outputs": [
						{
							"internalType": "string",
							"name": "",
							"type": "string"
						}
					],
					"payable": false,
					"stateMutability": "view",
					"type": "function"
				},
				{
					"constant": false,
					"inputs": [],
					"name": "sendMoney",
					"outputs": [],
					"payable": false,
					"stateMutability": "nonpayable",
					"type": "function"
				},
				{
					"constant": true,
					"inputs": [
						{
							"internalType": "address",
							"name": "",
							"type": "address"
						}
					],
					"name": "sponsors",
					"outputs": [
						{
							"internalType": "address",
							"name": "sponsorAddress",
							"type": "address"
						},
						{
							"internalType": "uint256",
							"name": "sponsorMoney",
							"type": "uint256"
						},
						{
							"internalType": "uint256",
							"name": "sponsorTime",
							"type": "uint256"
						}
					],
					"payable": false,
					"stateMutability": "view",
					"type": "function"
				},
				{
					"constant": true,
					"inputs": [],
					"name": "startTime",
					"outputs": [
						{
							"internalType": "uint256",
							"name": "",
							"type": "uint256"
						}
					],
					"payable": false,
					"stateMutability": "view",
					"type": "function"
				}
			],
			"devdoc": {
				"methods": {}
			},
			"evm": {
				"assembly": "    /* \"Example1.sol\":36:1197  contract example1 {\r... */\n  mstore(0x40, 0x80)\n    /* \"Example1.sol\":471:739  constructor(string memory _organizerName, string memory _charityName, address _charity) public{\r... */\n  callvalue\n    /* \"--CODEGEN--\":8:17   */\n  dup1\n    /* \"--CODEGEN--\":5:7   */\n  iszero\n  tag_1\n  jumpi\n    /* \"--CODEGEN--\":30:31   */\n  0x00\n    /* \"--CODEGEN--\":27:28   */\n  dup1\n    /* \"--CODEGEN--\":20:32   */\n  revert\n    /* \"--CODEGEN--\":5:7   */\ntag_1:\n    /* \"Example1.sol\":471:739  constructor(string memory _organizerName, string memory _charityName, address _charity) public{\r... */\n  pop\n  mload(0x40)\n  sub(codesize, bytecodeSize)\n  dup1\n  bytecodeSize\n  dup4\n  codecopy\n  dup2\n  dup2\n  add\n  0x40\n  mstore\n    /* \"--CODEGEN--\":13:15   */\n  0x60\n    /* \"--CODEGEN--\":8:11   */\n  dup2\n    /* \"--CODEGEN--\":5:16   */\n  lt\n    /* \"--CODEGEN--\":2:4   */\n  iszero\n  tag_2\n  jumpi\n    /* \"--CODEGEN--\":29:30   */\n  0x00\n    /* \"--CODEGEN--\":26:27   */\n  dup1\n    /* \"--CODEGEN--\":19:31   */\n  revert\n    /* \"--CODEGEN--\":2:4   */\ntag_2:\n    /* \"Example1.sol\":471:739  constructor(string memory _organizerName, string memory _charityName, address _charity) public{\r... */\n  dup2\n  add\n  swap1\n  dup1\n  dup1\n  mload\n  mload(0x40)\n  swap4\n  swap3\n  swap2\n  swap1\n  dup5\n    /* \"--CODEGEN--\":19:30   */\n  0x0100000000\n    /* \"--CODEGEN--\":14:17   */\n  dup3\n    /* \"--CODEGEN--\":11:31   */\n  gt\n    /* \"--CODEGEN--\":8:10   */\n  iszero\n  tag_3\n  jumpi\n    /* \"--CODEGEN--\":44:45   */\n  0x00\n    /* \"--CODEGEN--\":41:42   */\n  dup1\n    /* \"--CODEGEN--\":34:46   */\n  revert\n    /* \"--CODEGEN--\":8:10   */\ntag_3:\n    /* \"--CODEGEN--\":71:82   */\n  dup4\n    /* \"--CODEGEN--\":66:69   */\n  dup3\n    /* \"--CODEGEN--\":62:83   */\n  add\n    /* \"--CODEGEN--\":55:83   */\n  swap2\n  pop\n    /* \"--CODEGEN--\":123:127   */\n  0x20\n    /* \"--CODEGEN--\":118:121   */\n  dup3\n    /* \"--CODEGEN--\":114:128   */\n  add\n    /* \"--CODEGEN--\":159:168   */\n  dup6\n    /* \"--CODEGEN--\":141:157   */\n  dup2\n    /* \"--CODEGEN--\":138:169   */\n  gt\n    /* \"--CODEGEN--\":135:137   */\n  iszero\n  tag_4\n  jumpi\n    /* \"--CODEGEN--\":182:183   */\n  0x00\n    /* \"--CODEGEN--\":179:180   */\n  dup1\n    /* \"--CODEGEN--\":172:184   */\n  revert\n    /* \"--CODEGEN--\":135:137   */\ntag_4:\n    /* \"--CODEGEN--\":219:222   */\n  dup3\n    /* \"--CODEGEN--\":213:223   */\n  mload\n    /* \"--CODEGEN--\":330:339   */\n  dup7\n    /* \"--CODEGEN--\":325:326   */\n  0x01\n    /* \"--CODEGEN--\":311:323   */\n  dup3\n    /* \"--CODEGEN--\":307:327   */\n  mul\n    /* \"--CODEGEN--\":289:305   */\n  dup4\n    /* \"--CODEGEN--\":285:328   */\n  add\n    /* \"--CODEGEN--\":282:340   */\n  gt\n    /* \"--CODEGEN--\":261:272   */\n  0x0100000000\n    /* \"--CODEGEN--\":247:259   */\n  dup3\n    /* \"--CODEGEN--\":244:273   */\n  gt\n    /* \"--CODEGEN--\":233:348   */\n  or\n    /* \"--CODEGEN--\":230:232   */\n  iszero\n  tag_5\n  jumpi\n    /* \"--CODEGEN--\":361:362   */\n  0x00\n    /* \"--CODEGEN--\":358:359   */\n  dup1\n    /* \"--CODEGEN--\":351:363   */\n  revert\n    /* \"--CODEGEN--\":230:232   */\ntag_5:\n    /* \"--CODEGEN--\":384:396   */\n  dup1\n    /* \"--CODEGEN--\":379:382   */\n  dup4\n    /* \"--CODEGEN--\":372:397   */\n  mstore\n    /* \"--CODEGEN--\":420:424   */\n  0x20\n    /* \"--CODEGEN--\":415:418   */\n  dup4\n    /* \"--CODEGEN--\":411:425   */\n  add\n    /* \"--CODEGEN--\":404:425   */\n  swap3\n  pop\n    /* \"--CODEGEN--\":0:432   */\n  pop\n  pop\n    /* \"Example1.sol\":471:739  constructor(string memory _organizerName, string memory _charityName, address _charity) public{\r... */\n  swap1\n  dup1\n  mload\n  swap1\n  0x20\n  add\n  swap1\n  dup1\n  dup4\n  dup4\n    /* \"--CODEGEN--\":23:24   */\n  0x00\n    /* \"--CODEGEN--\":8:108   */\ntag_6:\n    /* \"--CODEGEN--\":33:36   */\n  dup4\n    /* \"--CODEGEN--\":30:31   */\n  dup2\n    /* \"--CODEGEN--\":27:37   */\n  lt\n    /* \"--CODEGEN--\":8:108   */\n  iszero\n  tag_8\n  jumpi\n    /* \"--CODEGEN--\":99:100   */\n  dup1\n    /* \"--CODEGEN--\":94:97   */\n  dup3\n    /* \"--CODEGEN--\":90:101   */\n  add\n    /* \"--CODEGEN--\":84:102   */\n  mload\n    /* \"--CODEGEN--\":80:81   */\n  dup2\n    /* \"--CODEGEN--\":75:78   */\n  dup5\n    /* \"--CODEGEN--\":71:82   */\n  add\n    /* \"--CODEGEN--\":64:103   */\n  mstore\n    /* \"--CODEGEN--\":52:54   */\n  0x20\n    /* \"--CODEGEN--\":49:50   */\n  dup2\n    /* \"--CODEGEN--\":45:55   */\n  add\n    /* \"--CODEGEN--\":40:55   */\n  swap1\n  pop\n    /* \"--CODEGEN--\":8:108   */\n  jump(tag_6)\ntag_8:\n    /* \"--CODEGEN--\":12:26   */\n  pop\n    /* \"Example1.sol\":471:739  constructor(string memory _organizerName, string memory _charityName, address _charity) public{\r... */\n  pop\n  pop\n  pop\n  swap1\n  pop\n  swap1\n  dup2\n  add\n  swap1\n  0x1f\n  and\n  dup1\n  iszero\n  tag_9\n  jumpi\n  dup1\n  dup3\n  sub\n  dup1\n  mload\n  0x01\n  dup4\n  0x20\n  sub\n  0x0100\n  exp\n  sub\n  not\n  and\n  dup2\n  mstore\n  0x20\n  add\n  swap2\n  pop\ntag_9:\n  pop\n  0x40\n  mstore\n  0x20\n  add\n  dup1\n  mload\n  mload(0x40)\n  swap4\n  swap3\n  swap2\n  swap1\n  dup5\n    /* \"--CODEGEN--\":19:30   */\n  0x0100000000\n    /* \"--CODEGEN--\":14:17   */\n  dup3\n    /* \"--CODEGEN--\":11:31   */\n  gt\n    /* \"--CODEGEN--\":8:10   */\n  iszero\n  tag_10\n  jumpi\n    /* \"--CODEGEN--\":44:45   */\n  0x00\n    /* \"--CODEGEN--\":41:42   */\n  dup1\n    /* \"--CODEGEN--\":34:46   */\n  revert\n    /* \"--CODEGEN--\":8:10   */\ntag_10:\n    /* \"--CODEGEN--\":71:82   */\n  dup4\n    /* \"--CODEGEN--\":66:69   */\n  dup3\n    /* \"--CODEGEN--\":62:83   */\n  add\n    /* \"--CODEGEN--\":55:83   */\n  swap2\n  pop\n    /* \"--CODEGEN--\":123:127   */\n  0x20\n    /* \"--CODEGEN--\":118:121   */\n  dup3\n    /* \"--CODEGEN--\":114:128   */\n  add\n    /* \"--CODEGEN--\":159:168   */\n  dup6\n    /* \"--CODEGEN--\":141:157   */\n  dup2\n    /* \"--CODEGEN--\":138:169   */\n  gt\n    /* \"--CODEGEN--\":135:137   */\n  iszero\n  tag_11\n  jumpi\n    /* \"--CODEGEN--\":182:183   */\n  0x00\n    /* \"--CODEGEN--\":179:180   */\n  dup1\n    /* \"--CODEGEN--\":172:184   */\n  revert\n    /* \"--CODEGEN--\":135:137   */\ntag_11:\n    /* \"--CODEGEN--\":219:222   */\n  dup3\n    /* \"--CODEGEN--\":213:223   */\n  mload\n    /* \"--CODEGEN--\":330:339   */\n  dup7\n    /* \"--CODEGEN--\":325:326   */\n  0x01\n    /* \"--CODEGEN--\":311:323   */\n  dup3\n    /* \"--CODEGEN--\":307:327   */\n  mul\n    /* \"--CODEGEN--\":289:305   */\n  dup4\n    /* \"--CODEGEN--\":285:328   */\n  add\n    /* \"--CODEGEN--\":282:340   */\n  gt\n    /* \"--CODEGEN--\":261:272   */\n  0x0100000000\n    /* \"--CODEGEN--\":247:259   */\n  dup3\n    /* \"--CODEGEN--\":244:273   */\n  gt\n    /* \"--CODEGEN--\":233:348   */\n  or\n    /* \"--CODEGEN--\":230:232   */\n  iszero\n  tag_12\n  jumpi\n    /* \"--CODEGEN--\":361:362   */\n  0x00\n    /* \"--CODEGEN--\":358:359   */\n  dup1\n    /* \"--CODEGEN--\":351:363   */\n  revert\n    /* \"--CODEGEN--\":230:232   */\ntag_12:\n    /* \"--CODEGEN--\":384:396   */\n  dup1\n    /* \"--CODEGEN--\":379:382   */\n  dup4\n    /* \"--CODEGEN--\":372:397   */\n  mstore\n    /* \"--CODEGEN--\":420:424   */\n  0x20\n    /* \"--CODEGEN--\":415:418   */\n  dup4\n    /* \"--CODEGEN--\":411:425   */\n  add\n    /* \"--CODEGEN--\":404:425   */\n  swap3\n  pop\n    /* \"--CODEGEN--\":0:432   */\n  pop\n  pop\n    /* \"Example1.sol\":471:739  constructor(string memory _organizerName, string memory _charityName, address _charity) public{\r... */\n  swap1\n  dup1\n  mload\n  swap1\n  0x20\n  add\n  swap1\n  dup1\n  dup4\n  dup4\n    /* \"--CODEGEN--\":23:24   */\n  0x00\n    /* \"--CODEGEN--\":8:108   */\ntag_13:\n    /* \"--CODEGEN--\":33:36   */\n  dup4\n    /* \"--CODEGEN--\":30:31   */\n  dup2\n    /* \"--CODEGEN--\":27:37   */\n  lt\n    /* \"--CODEGEN--\":8:108   */\n  iszero\n  tag_15\n  jumpi\n    /* \"--CODEGEN--\":99:100   */\n  dup1\n    /* \"--CODEGEN--\":94:97   */\n  dup3\n    /* \"--CODEGEN--\":90:101   */\n  add\n    /* \"--CODEGEN--\":84:102   */\n  mload\n    /* \"--CODEGEN--\":80:81   */\n  dup2\n    /* \"--CODEGEN--\":75:78   */\n  dup5\n    /* \"--CODEGEN--\":71:82   */\n  add\n    /* \"--CODEGEN--\":64:103   */\n  mstore\n    /* \"--CODEGEN--\":52:54   */\n  0x20\n    /* \"--CODEGEN--\":49:50   */\n  dup2\n    /* \"--CODEGEN--\":45:55   */\n  add\n    /* \"--CODEGEN--\":40:55   */\n  swap1\n  pop\n    /* \"--CODEGEN--\":8:108   */\n  jump(tag_13)\ntag_15:\n    /* \"--CODEGEN--\":12:26   */\n  pop\n    /* \"Example1.sol\":471:739  constructor(string memory _organizerName, string memory _charityName, address _charity) public{\r... */\n  pop\n  pop\n  pop\n  swap1\n  pop\n  swap1\n  dup2\n  add\n  swap1\n  0x1f\n  and\n  dup1\n  iszero\n  tag_16\n  jumpi\n  dup1\n  dup3\n  sub\n  dup1\n  mload\n  0x01\n  dup4\n  0x20\n  sub\n  0x0100\n  exp\n  sub\n  not\n  and\n  dup2\n  mstore\n  0x20\n  add\n  swap2\n  pop\ntag_16:\n  pop\n  0x40\n  mstore\n  0x20\n  add\n  dup1\n  mload\n  swap1\n  0x20\n  add\n  swap1\n  swap3\n  swap2\n  swap1\n  pop\n  pop\n  pop\n    /* \"Example1.sol\":588:598  msg.sender */\n  caller\n    /* \"Example1.sol\":576:585  organizer */\n  0x00\n  dup1\n    /* \"Example1.sol\":576:598  organizer = msg.sender */\n  0x0100\n  exp\n  dup2\n  sload\n  dup2\n  0xffffffffffffffffffffffffffffffffffffffff\n  mul\n  not\n  and\n  swap1\n  dup4\n  0xffffffffffffffffffffffffffffffffffffffff\n  and\n  mul\n  or\n  swap1\n  sstore\n  pop\n    /* \"Example1.sol\":619:627  _charity */\n  dup1\n    /* \"Example1.sol\":609:616  charity */\n  0x01\n  0x00\n    /* \"Example1.sol\":609:627  charity = _charity */\n  0x0100\n  exp\n  dup2\n  sload\n  dup2\n  0xffffffffffffffffffffffffffffffffffffffff\n  mul\n  not\n  and\n  swap1\n  dup4\n  0xffffffffffffffffffffffffffffffffffffffff\n  and\n  mul\n  or\n  swap1\n  sstore\n  pop\n    /* \"Example1.sol\":654:668  _organizerName */\n  dup3\n    /* \"Example1.sol\":638:651  organizerName */\n  0x02\n    /* \"Example1.sol\":638:668  organizerName = _organizerName */\n  swap1\n  dup1\n  mload\n  swap1\n  0x20\n  add\n  swap1\n  tag_19\n  swap3\n  swap2\n  swap1\n  tag_20\n  jump\t// in\ntag_19:\n  pop\n    /* \"Example1.sol\":693:705  _charityName */\n  dup2\n    /* \"Example1.sol\":679:690  charityName */\n  0x03\n    /* \"Example1.sol\":679:705  charityName = _charityName */\n  swap1\n  dup1\n  mload\n  swap1\n  0x20\n  add\n  swap1\n  tag_21\n  swap3\n  swap2\n  swap1\n  tag_20\n  jump\t// in\ntag_21:\n  pop\n    /* \"Example1.sol\":728:731  now */\n  timestamp\n    /* \"Example1.sol\":716:725  startTime */\n  0x04\n    /* \"Example1.sol\":716:731  startTime = now */\n  dup2\n  swap1\n  sstore\n  pop\n    /* \"Example1.sol\":471:739  constructor(string memory _organizerName, string memory _charityName, address _charity) public{\r... */\n  pop\n  pop\n  pop\n    /* \"Example1.sol\":36:1197  contract example1 {\r... */\n  jump(tag_22)\ntag_20:\n  dup3\n  dup1\n  sload\n  0x01\n  dup2\n  0x01\n  and\n  iszero\n  0x0100\n  mul\n  sub\n  and\n  0x02\n  swap1\n  div\n  swap1\n  0x00\n  mstore\n  keccak256(0x00, 0x20)\n  swap1\n  0x1f\n  add\n  0x20\n  swap1\n  div\n  dup2\n  add\n  swap3\n  dup3\n  0x1f\n  lt\n  tag_24\n  jumpi\n  dup1\n  mload\n  not(0xff)\n  and\n  dup4\n  dup1\n  add\n  or\n  dup6\n  sstore\n  jump(tag_23)\ntag_24:\n  dup3\n  dup1\n  add\n  0x01\n  add\n  dup6\n  sstore\n  dup3\n  iszero\n  tag_23\n  jumpi\n  swap2\n  dup3\n  add\ntag_25:\n  dup3\n  dup2\n  gt\n  iszero\n  tag_26\n  jumpi\n  dup3\n  mload\n  dup3\n  sstore\n  swap2\n  0x20\n  add\n  swap2\n  swap1\n  0x01\n  add\n  swap1\n  jump(tag_25)\ntag_26:\ntag_23:\n  pop\n  swap1\n  pop\n  tag_27\n  swap2\n  swap1\n  tag_28\n  jump\t// in\ntag_27:\n  pop\n  swap1\n  jump\t// out\ntag_28:\n  tag_29\n  swap2\n  swap1\ntag_30:\n  dup1\n  dup3\n  gt\n  iszero\n  tag_31\n  jumpi\n  0x00\n  dup2\n  0x00\n  swap1\n  sstore\n  pop\n  0x01\n  add\n  jump(tag_30)\ntag_31:\n  pop\n  swap1\n  jump\ntag_29:\n  swap1\n  jump\t// out\ntag_22:\n  dataSize(sub_0)\n  dup1\n  dataOffset(sub_0)\n  0x00\n  codecopy\n  0x00\n  return\nstop\n\nsub_0: assembly {\n        /* \"Example1.sol\":36:1197  contract example1 {\r... */\n      mstore(0x40, 0x80)\n      jumpi(tag_1, lt(calldatasize, 0x04))\n      shr(0xe0, calldataload(0x00))\n      dup1\n      0x934aa023\n      gt\n      tag_10\n      jumpi\n      dup1\n      0x934aa023\n      eq\n      tag_6\n      jumpi\n      dup1\n      0xcbedbf5a\n      eq\n      tag_7\n      jumpi\n      dup1\n      0xd35590c2\n      eq\n      tag_8\n      jumpi\n      dup1\n      0xed88c68e\n      eq\n      tag_9\n      jumpi\n      jump(tag_1)\n    tag_10:\n      dup1\n      0x36f89bcd\n      eq\n      tag_2\n      jumpi\n      dup1\n      0x3c4101fb\n      eq\n      tag_3\n      jumpi\n      dup1\n      0x61203265\n      eq\n      tag_4\n      jumpi\n      dup1\n      0x78e97925\n      eq\n      tag_5\n      jumpi\n    tag_1:\n      0x00\n      dup1\n      revert\n        /* \"Example1.sol\":155:180  string public charityName */\n    tag_2:\n      callvalue\n        /* \"--CODEGEN--\":8:17   */\n      dup1\n        /* \"--CODEGEN--\":5:7   */\n      iszero\n      tag_11\n      jumpi\n        /* \"--CODEGEN--\":30:31   */\n      0x00\n        /* \"--CODEGEN--\":27:28   */\n      dup1\n        /* \"--CODEGEN--\":20:32   */\n      revert\n        /* \"--CODEGEN--\":5:7   */\n    tag_11:\n        /* \"Example1.sol\":155:180  string public charityName */\n      pop\n      tag_12\n      tag_13\n      jump\t// in\n    tag_12:\n      mload(0x40)\n      dup1\n      dup1\n      0x20\n      add\n      dup3\n      dup2\n      sub\n      dup3\n      mstore\n      dup4\n      dup2\n      dup2\n      mload\n      dup2\n      mstore\n      0x20\n      add\n      swap2\n      pop\n      dup1\n      mload\n      swap1\n      0x20\n      add\n      swap1\n      dup1\n      dup4\n      dup4\n        /* \"--CODEGEN--\":23:24   */\n      0x00\n        /* \"--CODEGEN--\":8:108   */\n    tag_14:\n        /* \"--CODEGEN--\":33:36   */\n      dup4\n        /* \"--CODEGEN--\":30:31   */\n      dup2\n        /* \"--CODEGEN--\":27:37   */\n      lt\n        /* \"--CODEGEN--\":8:108   */\n      iszero\n      tag_16\n      jumpi\n        /* \"--CODEGEN--\":99:100   */\n      dup1\n        /* \"--CODEGEN--\":94:97   */\n      dup3\n        /* \"--CODEGEN--\":90:101   */\n      add\n        /* \"--CODEGEN--\":84:102   */\n      mload\n        /* \"--CODEGEN--\":80:81   */\n      dup2\n        /* \"--CODEGEN--\":75:78   */\n      dup5\n        /* \"--CODEGEN--\":71:82   */\n      add\n        /* \"--CODEGEN--\":64:103   */\n      mstore\n        /* \"--CODEGEN--\":52:54   */\n      0x20\n        /* \"--CODEGEN--\":49:50   */\n      dup2\n        /* \"--CODEGEN--\":45:55   */\n      add\n        /* \"--CODEGEN--\":40:55   */\n      swap1\n      pop\n        /* \"--CODEGEN--\":8:108   */\n      jump(tag_14)\n    tag_16:\n        /* \"--CODEGEN--\":12:26   */\n      pop\n        /* \"Example1.sol\":155:180  string public charityName */\n      pop\n      pop\n      pop\n      swap1\n      pop\n      swap1\n      dup2\n      add\n      swap1\n      0x1f\n      and\n      dup1\n      iszero\n      tag_17\n      jumpi\n      dup1\n      dup3\n      sub\n      dup1\n      mload\n      0x01\n      dup4\n      0x20\n      sub\n      0x0100\n      exp\n      sub\n      not\n      and\n      dup2\n      mstore\n      0x20\n      add\n      swap2\n      pop\n    tag_17:\n      pop\n      swap3\n      pop\n      pop\n      pop\n      mload(0x40)\n      dup1\n      swap2\n      sub\n      swap1\n      return\n        /* \"Example1.sol\":121:148  string public organizerName */\n    tag_3:\n      callvalue\n        /* \"--CODEGEN--\":8:17   */\n      dup1\n        /* \"--CODEGEN--\":5:7   */\n      iszero\n      tag_18\n      jumpi\n        /* \"--CODEGEN--\":30:31   */\n      0x00\n        /* \"--CODEGEN--\":27:28   */\n      dup1\n        /* \"--CODEGEN--\":20:32   */\n      revert\n        /* \"--CODEGEN--\":5:7   */\n    tag_18:\n        /* \"Example1.sol\":121:148  string public organizerName */\n      pop\n      tag_19\n      tag_20\n      jump\t// in\n    tag_19:\n      mload(0x40)\n      dup1\n      dup1\n      0x20\n      add\n      dup3\n      dup2\n      sub\n      dup3\n      mstore\n      dup4\n      dup2\n      dup2\n      mload\n      dup2\n      mstore\n      0x20\n      add\n      swap2\n      pop\n      dup1\n      mload\n      swap1\n      0x20\n      add\n      swap1\n      dup1\n      dup4\n      dup4\n        /* \"--CODEGEN--\":23:24   */\n      0x00\n        /* \"--CODEGEN--\":8:108   */\n    tag_21:\n        /* \"--CODEGEN--\":33:36   */\n      dup4\n        /* \"--CODEGEN--\":30:31   */\n      dup2\n        /* \"--CODEGEN--\":27:37   */\n      lt\n        /* \"--CODEGEN--\":8:108   */\n      iszero\n      tag_23\n      jumpi\n        /* \"--CODEGEN--\":99:100   */\n      dup1\n        /* \"--CODEGEN--\":94:97   */\n      dup3\n        /* \"--CODEGEN--\":90:101   */\n      add\n        /* \"--CODEGEN--\":84:102   */\n      mload\n        /* \"--CODEGEN--\":80:81   */\n      dup2\n        /* \"--CODEGEN--\":75:78   */\n      dup5\n        /* \"--CODEGEN--\":71:82   */\n      add\n        /* \"--CODEGEN--\":64:103   */\n      mstore\n        /* \"--CODEGEN--\":52:54   */\n      0x20\n        /* \"--CODEGEN--\":49:50   */\n      dup2\n        /* \"--CODEGEN--\":45:55   */\n      add\n        /* \"--CODEGEN--\":40:55   */\n      swap1\n      pop\n        /* \"--CODEGEN--\":8:108   */\n      jump(tag_21)\n    tag_23:\n        /* \"--CODEGEN--\":12:26   */\n      pop\n        /* \"Example1.sol\":121:148  string public organizerName */\n      pop\n      pop\n      pop\n      swap1\n      pop\n      swap1\n      dup2\n      add\n      swap1\n      0x1f\n      and\n      dup1\n      iszero\n      tag_24\n      jumpi\n      dup1\n      dup3\n      sub\n      dup1\n      mload\n      0x01\n      dup4\n      0x20\n      sub\n      0x0100\n      exp\n      sub\n      not\n      and\n      dup2\n      mstore\n      0x20\n      add\n      swap2\n      pop\n    tag_24:\n      pop\n      swap3\n      pop\n      pop\n      pop\n      mload(0x40)\n      dup1\n      swap2\n      sub\n      swap1\n      return\n        /* \"Example1.sol\":61:85  address public organizer */\n    tag_4:\n      callvalue\n        /* \"--CODEGEN--\":8:17   */\n      dup1\n        /* \"--CODEGEN--\":5:7   */\n      iszero\n      tag_25\n      jumpi\n        /* \"--CODEGEN--\":30:31   */\n      0x00\n        /* \"--CODEGEN--\":27:28   */\n      dup1\n        /* \"--CODEGEN--\":20:32   */\n      revert\n        /* \"--CODEGEN--\":5:7   */\n    tag_25:\n        /* \"Example1.sol\":61:85  address public organizer */\n      pop\n      tag_26\n      tag_27\n      jump\t// in\n    tag_26:\n      mload(0x40)\n      dup1\n      dup3\n      0xffffffffffffffffffffffffffffffffffffffff\n      and\n      0xffffffffffffffffffffffffffffffffffffffff\n      and\n      dup2\n      mstore\n      0x20\n      add\n      swap2\n      pop\n      pop\n      mload(0x40)\n      dup1\n      swap2\n      sub\n      swap1\n      return\n        /* \"Example1.sol\":187:208  uint public startTime */\n    tag_5:\n      callvalue\n        /* \"--CODEGEN--\":8:17   */\n      dup1\n        /* \"--CODEGEN--\":5:7   */\n      iszero\n      tag_28\n      jumpi\n        /* \"--CODEGEN--\":30:31   */\n      0x00\n        /* \"--CODEGEN--\":27:28   */\n      dup1\n        /* \"--CODEGEN--\":20:32   */\n      revert\n        /* \"--CODEGEN--\":5:7   */\n    tag_28:\n        /* \"Example1.sol\":187:208  uint public startTime */\n      pop\n      tag_29\n      tag_30\n      jump\t// in\n    tag_29:\n      mload(0x40)\n      dup1\n      dup3\n      dup2\n      mstore\n      0x20\n      add\n      swap2\n      pop\n      pop\n      mload(0x40)\n      dup1\n      swap2\n      sub\n      swap1\n      return\n        /* \"Example1.sol\":92:114  address public charity */\n    tag_6:\n      callvalue\n        /* \"--CODEGEN--\":8:17   */\n      dup1\n        /* \"--CODEGEN--\":5:7   */\n      iszero\n      tag_31\n      jumpi\n        /* \"--CODEGEN--\":30:31   */\n      0x00\n        /* \"--CODEGEN--\":27:28   */\n      dup1\n        /* \"--CODEGEN--\":20:32   */\n      revert\n        /* \"--CODEGEN--\":5:7   */\n    tag_31:\n        /* \"Example1.sol\":92:114  address public charity */\n      pop\n      tag_32\n      tag_33\n      jump\t// in\n    tag_32:\n      mload(0x40)\n      dup1\n      dup3\n      0xffffffffffffffffffffffffffffffffffffffff\n      and\n      0xffffffffffffffffffffffffffffffffffffffff\n      and\n      dup2\n      mstore\n      0x20\n      add\n      swap2\n      pop\n      pop\n      mload(0x40)\n      dup1\n      swap2\n      sub\n      swap1\n      return\n        /* \"Example1.sol\":1080:1194  function sendMoney() public onlyOrganizer {\r... */\n    tag_7:\n      callvalue\n        /* \"--CODEGEN--\":8:17   */\n      dup1\n        /* \"--CODEGEN--\":5:7   */\n      iszero\n      tag_34\n      jumpi\n        /* \"--CODEGEN--\":30:31   */\n      0x00\n        /* \"--CODEGEN--\":27:28   */\n      dup1\n        /* \"--CODEGEN--\":20:32   */\n      revert\n        /* \"--CODEGEN--\":5:7   */\n    tag_34:\n        /* \"Example1.sol\":1080:1194  function sendMoney() public onlyOrganizer {\r... */\n      pop\n      tag_35\n      tag_36\n      jump\t// in\n    tag_35:\n      stop\n        /* \"Example1.sol\":331:373  mapping (address=>sponsor) public sponsors */\n    tag_8:\n      callvalue\n        /* \"--CODEGEN--\":8:17   */\n      dup1\n        /* \"--CODEGEN--\":5:7   */\n      iszero\n      tag_37\n      jumpi\n        /* \"--CODEGEN--\":30:31   */\n      0x00\n        /* \"--CODEGEN--\":27:28   */\n      dup1\n        /* \"--CODEGEN--\":20:32   */\n      revert\n        /* \"--CODEGEN--\":5:7   */\n    tag_37:\n        /* \"Example1.sol\":331:373  mapping (address=>sponsor) public sponsors */\n      pop\n      tag_38\n      0x04\n      dup1\n      calldatasize\n      sub\n        /* \"--CODEGEN--\":13:15   */\n      0x20\n        /* \"--CODEGEN--\":8:11   */\n      dup2\n        /* \"--CODEGEN--\":5:16   */\n      lt\n        /* \"--CODEGEN--\":2:4   */\n      iszero\n      tag_39\n      jumpi\n        /* \"--CODEGEN--\":29:30   */\n      0x00\n        /* \"--CODEGEN--\":26:27   */\n      dup1\n        /* \"--CODEGEN--\":19:31   */\n      revert\n        /* \"--CODEGEN--\":2:4   */\n    tag_39:\n        /* \"Example1.sol\":331:373  mapping (address=>sponsor) public sponsors */\n      dup2\n      add\n      swap1\n      dup1\n      dup1\n      calldataload\n      0xffffffffffffffffffffffffffffffffffffffff\n      and\n      swap1\n      0x20\n      add\n      swap1\n      swap3\n      swap2\n      swap1\n      pop\n      pop\n      pop\n      tag_40\n      jump\t// in\n    tag_38:\n      mload(0x40)\n      dup1\n      dup5\n      0xffffffffffffffffffffffffffffffffffffffff\n      and\n      0xffffffffffffffffffffffffffffffffffffffff\n      and\n      dup2\n      mstore\n      0x20\n      add\n      dup4\n      dup2\n      mstore\n      0x20\n      add\n      dup3\n      dup2\n      mstore\n      0x20\n      add\n      swap4\n      pop\n      pop\n      pop\n      pop\n      mload(0x40)\n      dup1\n      swap2\n      sub\n      swap1\n      return\n        /* \"Example1.sol\":867:1074  function donate() public payable {\r... */\n    tag_9:\n      tag_41\n      tag_42\n      jump\t// in\n    tag_41:\n      stop\n        /* \"Example1.sol\":155:180  string public charityName */\n    tag_13:\n      0x03\n      dup1\n      sload\n      0x01\n      dup2\n      0x01\n      and\n      iszero\n      0x0100\n      mul\n      sub\n      and\n      0x02\n      swap1\n      div\n      dup1\n      0x1f\n      add\n      0x20\n      dup1\n      swap2\n      div\n      mul\n      0x20\n      add\n      mload(0x40)\n      swap1\n      dup2\n      add\n      0x40\n      mstore\n      dup1\n      swap3\n      swap2\n      swap1\n      dup2\n      dup2\n      mstore\n      0x20\n      add\n      dup3\n      dup1\n      sload\n      0x01\n      dup2\n      0x01\n      and\n      iszero\n      0x0100\n      mul\n      sub\n      and\n      0x02\n      swap1\n      div\n      dup1\n      iszero\n      tag_43\n      jumpi\n      dup1\n      0x1f\n      lt\n      tag_44\n      jumpi\n      0x0100\n      dup1\n      dup4\n      sload\n      div\n      mul\n      dup4\n      mstore\n      swap2\n      0x20\n      add\n      swap2\n      jump(tag_43)\n    tag_44:\n      dup3\n      add\n      swap2\n      swap1\n      0x00\n      mstore\n      keccak256(0x00, 0x20)\n      swap1\n    tag_45:\n      dup2\n      sload\n      dup2\n      mstore\n      swap1\n      0x01\n      add\n      swap1\n      0x20\n      add\n      dup1\n      dup4\n      gt\n      tag_45\n      jumpi\n      dup3\n      swap1\n      sub\n      0x1f\n      and\n      dup3\n      add\n      swap2\n    tag_43:\n      pop\n      pop\n      pop\n      pop\n      pop\n      dup2\n      jump\t// out\n        /* \"Example1.sol\":121:148  string public organizerName */\n    tag_20:\n      0x02\n      dup1\n      sload\n      0x01\n      dup2\n      0x01\n      and\n      iszero\n      0x0100\n      mul\n      sub\n      and\n      0x02\n      swap1\n      div\n      dup1\n      0x1f\n      add\n      0x20\n      dup1\n      swap2\n      div\n      mul\n      0x20\n      add\n      mload(0x40)\n      swap1\n      dup2\n      add\n      0x40\n      mstore\n      dup1\n      swap3\n      swap2\n      swap1\n      dup2\n      dup2\n      mstore\n      0x20\n      add\n      dup3\n      dup1\n      sload\n      0x01\n      dup2\n      0x01\n      and\n      iszero\n      0x0100\n      mul\n      sub\n      and\n      0x02\n      swap1\n      div\n      dup1\n      iszero\n      tag_46\n      jumpi\n      dup1\n      0x1f\n      lt\n      tag_47\n      jumpi\n      0x0100\n      dup1\n      dup4\n      sload\n      div\n      mul\n      dup4\n      mstore\n      swap2\n      0x20\n      add\n      swap2\n      jump(tag_46)\n    tag_47:\n      dup3\n      add\n      swap2\n      swap1\n      0x00\n      mstore\n      keccak256(0x00, 0x20)\n      swap1\n    tag_48:\n      dup2\n      sload\n      dup2\n      mstore\n      swap1\n      0x01\n      add\n      swap1\n      0x20\n      add\n      dup1\n      dup4\n      gt\n      tag_48\n      jumpi\n      dup3\n      swap1\n      sub\n      0x1f\n      and\n      dup3\n      add\n      swap2\n    tag_46:\n      pop\n      pop\n      pop\n      pop\n      pop\n      dup2\n      jump\t// out\n        /* \"Example1.sol\":61:85  address public organizer */\n    tag_27:\n      0x00\n      dup1\n      swap1\n      sload\n      swap1\n      0x0100\n      exp\n      swap1\n      div\n      0xffffffffffffffffffffffffffffffffffffffff\n      and\n      dup2\n      jump\t// out\n        /* \"Example1.sol\":187:208  uint public startTime */\n    tag_30:\n      sload(0x04)\n      dup2\n      jump\t// out\n        /* \"Example1.sol\":92:114  address public charity */\n    tag_33:\n      0x01\n      0x00\n      swap1\n      sload\n      swap1\n      0x0100\n      exp\n      swap1\n      div\n      0xffffffffffffffffffffffffffffffffffffffff\n      and\n      dup2\n      jump\t// out\n        /* \"Example1.sol\":1080:1194  function sendMoney() public onlyOrganizer {\r... */\n    tag_36:\n        /* \"Example1.sol\":435:444  organizer */\n      0x00\n      dup1\n      swap1\n      sload\n      swap1\n      0x0100\n      exp\n      swap1\n      div\n      0xffffffffffffffffffffffffffffffffffffffff\n      and\n        /* \"Example1.sol\":421:444  msg.sender == organizer */\n      0xffffffffffffffffffffffffffffffffffffffff\n      and\n        /* \"Example1.sol\":421:431  msg.sender */\n      caller\n        /* \"Example1.sol\":421:444  msg.sender == organizer */\n      0xffffffffffffffffffffffffffffffffffffffff\n      and\n      eq\n        /* \"Example1.sol\":413:445  require(msg.sender == organizer) */\n      tag_50\n      jumpi\n      0x00\n      dup1\n      revert\n    tag_50:\n        /* \"Example1.sol\":1133:1154  make_payable(charity) */\n      tag_52\n        /* \"Example1.sol\":1146:1153  charity */\n      0x01\n      0x00\n      swap1\n      sload\n      swap1\n      0x0100\n      exp\n      swap1\n      div\n      0xffffffffffffffffffffffffffffffffffffffff\n      and\n        /* \"Example1.sol\":1133:1145  make_payable */\n      tag_53\n        /* \"Example1.sol\":1133:1154  make_payable(charity) */\n      jump\t// in\n    tag_52:\n        /* \"Example1.sol\":1133:1163  make_payable(charity).transfer */\n      0xffffffffffffffffffffffffffffffffffffffff\n      and\n        /* \"Example1.sol\":1133:1186  make_payable(charity).transfer(address(this).balance) */\n      0x08fc\n        /* \"Example1.sol\":1164:1185  address(this).balance */\n      selfbalance\n        /* \"Example1.sol\":1133:1186  make_payable(charity).transfer(address(this).balance) */\n      swap1\n      dup2\n      iszero\n      mul\n      swap1\n      mload(0x40)\n      0x00\n      mload(0x40)\n      dup1\n      dup4\n      sub\n      dup2\n      dup6\n      dup9\n      dup9\n      call\n      swap4\n      pop\n      pop\n      pop\n      pop\n      iszero\n        /* \"--CODEGEN--\":8:17   */\n      dup1\n        /* \"--CODEGEN--\":5:7   */\n      iszero\n      tag_54\n      jumpi\n        /* \"--CODEGEN--\":45:61   */\n      returndatasize\n        /* \"--CODEGEN--\":42:43   */\n      0x00\n        /* \"--CODEGEN--\":39:40   */\n      dup1\n        /* \"--CODEGEN--\":24:62   */\n      returndatacopy\n        /* \"--CODEGEN--\":77:93   */\n      returndatasize\n        /* \"--CODEGEN--\":74:75   */\n      0x00\n        /* \"--CODEGEN--\":67:94   */\n      revert\n        /* \"--CODEGEN--\":5:7   */\n    tag_54:\n        /* \"Example1.sol\":1133:1186  make_payable(charity).transfer(address(this).balance) */\n      pop\n        /* \"Example1.sol\":1080:1194  function sendMoney() public onlyOrganizer {\r... */\n      jump\t// out\n        /* \"Example1.sol\":331:373  mapping (address=>sponsor) public sponsors */\n    tag_40:\n      mstore(0x20, 0x05)\n      dup1\n      0x00\n      mstore\n      keccak256(0x00, 0x40)\n      0x00\n      swap2\n      pop\n      swap1\n      pop\n      dup1\n      0x00\n      add\n      0x00\n      swap1\n      sload\n      swap1\n      0x0100\n      exp\n      swap1\n      div\n      0xffffffffffffffffffffffffffffffffffffffff\n      and\n      swap1\n      dup1\n      0x01\n      add\n      sload\n      swap1\n      dup1\n      0x02\n      add\n      sload\n      swap1\n      pop\n      dup4\n      jump\t// out\n        /* \"Example1.sol\":867:1074  function donate() public payable {\r... */\n    tag_42:\n        /* \"Example1.sol\":933:1066  sponsor({\r... */\n      mload(0x40)\n      dup1\n      0x60\n      add\n      0x40\n      mstore\n      dup1\n        /* \"Example1.sol\":972:982  msg.sender */\n      caller\n        /* \"Example1.sol\":933:1066  sponsor({\r... */\n      0xffffffffffffffffffffffffffffffffffffffff\n      and\n      dup2\n      mstore\n      0x20\n      add\n        /* \"Example1.sol\":1013:1022  msg.value */\n      callvalue\n        /* \"Example1.sol\":933:1066  sponsor({\r... */\n      dup2\n      mstore\n      0x20\n      add\n        /* \"Example1.sol\":1051:1054  now */\n      timestamp\n        /* \"Example1.sol\":933:1066  sponsor({\r... */\n      dup2\n      mstore\n      pop\n        /* \"Example1.sol\":911:919  sponsors */\n      0x05\n        /* \"Example1.sol\":911:931  sponsors[msg.sender] */\n      0x00\n        /* \"Example1.sol\":920:930  msg.sender */\n      caller\n        /* \"Example1.sol\":911:931  sponsors[msg.sender] */\n      0xffffffffffffffffffffffffffffffffffffffff\n      and\n      0xffffffffffffffffffffffffffffffffffffffff\n      and\n      dup2\n      mstore\n      0x20\n      add\n      swap1\n      dup2\n      mstore\n      0x20\n      add\n      0x00\n      keccak256\n        /* \"Example1.sol\":911:1066  sponsors[msg.sender] =sponsor({\r... */\n      0x00\n      dup3\n      add\n      mload\n      dup2\n      0x00\n      add\n      exp(0x0100, 0x00)\n      dup2\n      sload\n      dup2\n      0xffffffffffffffffffffffffffffffffffffffff\n      mul\n      not\n      and\n      swap1\n      dup4\n      0xffffffffffffffffffffffffffffffffffffffff\n      and\n      mul\n      or\n      swap1\n      sstore\n      pop\n      0x20\n      dup3\n      add\n      mload\n      dup2\n      0x01\n      add\n      sstore\n      0x40\n      dup3\n      add\n      mload\n      dup2\n      0x02\n      add\n      sstore\n      swap1\n      pop\n      pop\n        /* \"Example1.sol\":867:1074  function donate() public payable {\r... */\n      jump\t// out\n        /* \"Example1.sol\":745:861  function make_payable(address x) internal pure returns(address payable){\r... */\n    tag_53:\n        /* \"Example1.sol\":800:815  address payable */\n      0x00\n        /* \"Example1.sol\":850:851  x */\n      dup2\n        /* \"Example1.sol\":827:853  return address(uint160(x)) */\n      swap1\n      pop\n        /* \"Example1.sol\":745:861  function make_payable(address x) internal pure returns(address payable){\r... */\n      swap2\n      swap1\n      pop\n      jump\t// out\n\n    auxdata: 0xa265627a7a72315820547d21a63bf3cf2271cc5cf17d67349790109fc397560095fc13f060c63097ef64736f6c63430005110032\n}\n",
				"bytecode": {
					"linkReferences": {},
					"object": "608060405234801561001057600080fd5b50604051610a0f380380610a0f8339818101604052606081101561003357600080fd5b810190808051604051939291908464010000000082111561005357600080fd5b8382019150602082018581111561006957600080fd5b825186600182028301116401000000008211171561008657600080fd5b8083526020830192505050908051906020019080838360005b838110156100ba57808201518184015260208101905061009f565b50505050905090810190601f1680156100e75780820380516001836020036101000a031916815260200191505b506040526020018051604051939291908464010000000082111561010a57600080fd5b8382019150602082018581111561012057600080fd5b825186600182028301116401000000008211171561013d57600080fd5b8083526020830192505050908051906020019080838360005b83811015610171578082015181840152602081019050610156565b50505050905090810190601f16801561019e5780820380516001836020036101000a031916815260200191505b5060405260200180519060200190929190505050336000806101000a81548173ffffffffffffffffffffffffffffffffffffffff021916908373ffffffffffffffffffffffffffffffffffffffff16021790555080600160006101000a81548173ffffffffffffffffffffffffffffffffffffffff021916908373ffffffffffffffffffffffffffffffffffffffff1602179055508260029080519060200190610249929190610270565b508160039080519060200190610260929190610270565b5042600481905550505050610315565b828054600181600116156101000203166002900490600052602060002090601f016020900481019282601f106102b157805160ff19168380011785556102df565b828001600101855582156102df579182015b828111156102de5782518255916020019190600101906102c3565b5b5090506102ec91906102f0565b5090565b61031291905b8082111561030e5760008160009055506001016102f6565b5090565b90565b6106eb806103246000396000f3fe60806040526004361061007b5760003560e01c8063934aa0231161004e578063934aa02314610222578063cbedbf5a14610279578063d35590c214610290578063ed88c68e1461032f5761007b565b806336f89bcd146100805780633c4101fb1461011057806361203265146101a057806378e97925146101f7575b600080fd5b34801561008c57600080fd5b50610095610339565b6040518080602001828103825283818151815260200191508051906020019080838360005b838110156100d55780820151818401526020810190506100ba565b50505050905090810190601f1680156101025780820380516001836020036101000a031916815260200191505b509250505060405180910390f35b34801561011c57600080fd5b506101256103d7565b6040518080602001828103825283818151815260200191508051906020019080838360005b8381101561016557808201518184015260208101905061014a565b50505050905090810190601f1680156101925780820380516001836020036101000a031916815260200191505b509250505060405180910390f35b3480156101ac57600080fd5b506101b5610475565b604051808273ffffffffffffffffffffffffffffffffffffffff1673ffffffffffffffffffffffffffffffffffffffff16815260200191505060405180910390f35b34801561020357600080fd5b5061020c61049a565b6040518082815260200191505060405180910390f35b34801561022e57600080fd5b506102376104a0565b604051808273ffffffffffffffffffffffffffffffffffffffff1673ffffffffffffffffffffffffffffffffffffffff16815260200191505060405180910390f35b34801561028557600080fd5b5061028e6104c6565b005b34801561029c57600080fd5b506102df600480360360208110156102b357600080fd5b81019080803573ffffffffffffffffffffffffffffffffffffffff169060200190929190505050610592565b604051808473ffffffffffffffffffffffffffffffffffffffff1673ffffffffffffffffffffffffffffffffffffffff168152602001838152602001828152602001935050505060405180910390f35b6103376105dc565b005b60038054600181600116156101000203166002900480601f0160208091040260200160405190810160405280929190818152602001828054600181600116156101000203166002900480156103cf5780601f106103a4576101008083540402835291602001916103cf565b820191906000526020600020905b8154815290600101906020018083116103b257829003601f168201915b505050505081565b60028054600181600116156101000203166002900480601f01602080910402602001604051908101604052809291908181526020018280546001816001161561010002031660029004801561046d5780601f106104425761010080835404028352916020019161046d565b820191906000526020600020905b81548152906001019060200180831161045057829003601f168201915b505050505081565b6000809054906101000a900473ffffffffffffffffffffffffffffffffffffffff1681565b60045481565b600160009054906101000a900473ffffffffffffffffffffffffffffffffffffffff1681565b6000809054906101000a900473ffffffffffffffffffffffffffffffffffffffff1673ffffffffffffffffffffffffffffffffffffffff163373ffffffffffffffffffffffffffffffffffffffff161461051f57600080fd5b61054a600160009054906101000a900473ffffffffffffffffffffffffffffffffffffffff166106ac565b73ffffffffffffffffffffffffffffffffffffffff166108fc479081150290604051600060405180830381858888f1935050505015801561058f573d6000803e3d6000fd5b50565b60056020528060005260406000206000915090508060000160009054906101000a900473ffffffffffffffffffffffffffffffffffffffff16908060010154908060020154905083565b60405180606001604052803373ffffffffffffffffffffffffffffffffffffffff16815260200134815260200142815250600560003373ffffffffffffffffffffffffffffffffffffffff1673ffffffffffffffffffffffffffffffffffffffff16815260200190815260200160002060008201518160000160006101000a81548173ffffffffffffffffffffffffffffffffffffffff021916908373ffffffffffffffffffffffffffffffffffffffff1602179055506020820151816001015560408201518160020155905050565b600081905091905056fea265627a7a72315820547d21a63bf3cf2271cc5cf17d67349790109fc397560095fc13f060c63097ef64736f6c63430005110032",
					"opcodes": "PUSH1 0x80 PUSH1 0x40 MSTORE CALLVALUE DUP1 ISZERO PUSH2 0x10 JUMPI PUSH1 0x0 DUP1 REVERT JUMPDEST POP PUSH1 0x40 MLOAD PUSH2 0xA0F CODESIZE SUB DUP1 PUSH2 0xA0F DUP4 CODECOPY DUP2 DUP2 ADD PUSH1 0x40 MSTORE PUSH1 0x60 DUP2 LT ISZERO PUSH2 0x33 JUMPI PUSH1 0x0 DUP1 REVERT JUMPDEST DUP2 ADD SWAP1 DUP1 DUP1 MLOAD PUSH1 0x40 MLOAD SWAP4 SWAP3 SWAP2 SWAP1 DUP5 PUSH5 0x100000000 DUP3 GT ISZERO PUSH2 0x53 JUMPI PUSH1 0x0 DUP1 REVERT JUMPDEST DUP4 DUP3 ADD SWAP2 POP PUSH1 0x20 DUP3 ADD DUP6 DUP2 GT ISZERO PUSH2 0x69 JUMPI PUSH1 0x0 DUP1 REVERT JUMPDEST DUP3 MLOAD DUP7 PUSH1 0x1 DUP3 MUL DUP4 ADD GT PUSH5 0x100000000 DUP3 GT OR ISZERO PUSH2 0x86 JUMPI PUSH1 0x0 DUP1 REVERT JUMPDEST DUP1 DUP4 MSTORE PUSH1 0x20 DUP4 ADD SWAP3 POP POP POP SWAP1 DUP1 MLOAD SWAP1 PUSH1 0x20 ADD SWAP1 DUP1 DUP4 DUP4 PUSH1 0x0 JUMPDEST DUP4 DUP2 LT ISZERO PUSH2 0xBA JUMPI DUP1 DUP3 ADD MLOAD DUP2 DUP5 ADD MSTORE PUSH1 0x20 DUP2 ADD SWAP1 POP PUSH2 0x9F JUMP JUMPDEST POP POP POP POP SWAP1 POP SWAP1 DUP2 ADD SWAP1 PUSH1 0x1F AND DUP1 ISZERO PUSH2 0xE7 JUMPI DUP1 DUP3 SUB DUP1 MLOAD PUSH1 0x1 DUP4 PUSH1 0x20 SUB PUSH2 0x100 EXP SUB NOT AND DUP2 MSTORE PUSH1 0x20 ADD SWAP2 POP JUMPDEST POP PUSH1 0x40 MSTORE PUSH1 0x20 ADD DUP1 MLOAD PUSH1 0x40 MLOAD SWAP4 SWAP3 SWAP2 SWAP1 DUP5 PUSH5 0x100000000 DUP3 GT ISZERO PUSH2 0x10A JUMPI PUSH1 0x0 DUP1 REVERT JUMPDEST DUP4 DUP3 ADD SWAP2 POP PUSH1 0x20 DUP3 ADD DUP6 DUP2 GT ISZERO PUSH2 0x120 JUMPI PUSH1 0x0 DUP1 REVERT JUMPDEST DUP3 MLOAD DUP7 PUSH1 0x1 DUP3 MUL DUP4 ADD GT PUSH5 0x100000000 DUP3 GT OR ISZERO PUSH2 0x13D JUMPI PUSH1 0x0 DUP1 REVERT JUMPDEST DUP1 DUP4 MSTORE PUSH1 0x20 DUP4 ADD SWAP3 POP POP POP SWAP1 DUP1 MLOAD SWAP1 PUSH1 0x20 ADD SWAP1 DUP1 DUP4 DUP4 PUSH1 0x0 JUMPDEST DUP4 DUP2 LT ISZERO PUSH2 0x171 JUMPI DUP1 DUP3 ADD MLOAD DUP2 DUP5 ADD MSTORE PUSH1 0x20 DUP2 ADD SWAP1 POP PUSH2 0x156 JUMP JUMPDEST POP POP POP POP SWAP1 POP SWAP1 DUP2 ADD SWAP1 PUSH1 0x1F AND DUP1 ISZERO PUSH2 0x19E JUMPI DUP1 DUP3 SUB DUP1 MLOAD PUSH1 0x1 DUP4 PUSH1 0x20 SUB PUSH2 0x100 EXP SUB NOT AND DUP2 MSTORE PUSH1 0x20 ADD SWAP2 POP JUMPDEST POP PUSH1 0x40 MSTORE PUSH1 0x20 ADD DUP1 MLOAD SWAP1 PUSH1 0x20 ADD SWAP1 SWAP3 SWAP2 SWAP1 POP POP POP CALLER PUSH1 0x0 DUP1 PUSH2 0x100 EXP DUP2 SLOAD DUP2 PUSH20 0xFFFFFFFFFFFFFFFFFFFFFFFFFFFFFFFFFFFFFFFF MUL NOT AND SWAP1 DUP4 PUSH20 0xFFFFFFFFFFFFFFFFFFFFFFFFFFFFFFFFFFFFFFFF AND MUL OR SWAP1 SSTORE POP DUP1 PUSH1 0x1 PUSH1 0x0 PUSH2 0x100 EXP DUP2 SLOAD DUP2 PUSH20 0xFFFFFFFFFFFFFFFFFFFFFFFFFFFFFFFFFFFFFFFF MUL NOT AND SWAP1 DUP4 PUSH20 0xFFFFFFFFFFFFFFFFFFFFFFFFFFFFFFFFFFFFFFFF AND MUL OR SWAP1 SSTORE POP DUP3 PUSH1 0x2 SWAP1 DUP1 MLOAD SWAP1 PUSH1 0x20 ADD SWAP1 PUSH2 0x249 SWAP3 SWAP2 SWAP1 PUSH2 0x270 JUMP JUMPDEST POP DUP2 PUSH1 0x3 SWAP1 DUP1 MLOAD SWAP1 PUSH1 0x20 ADD SWAP1 PUSH2 0x260 SWAP3 SWAP2 SWAP1 PUSH2 0x270 JUMP JUMPDEST POP TIMESTAMP PUSH1 0x4 DUP2 SWAP1 SSTORE POP POP POP POP PUSH2 0x315 JUMP JUMPDEST DUP3 DUP1 SLOAD PUSH1 0x1 DUP2 PUSH1 0x1 AND ISZERO PUSH2 0x100 MUL SUB AND PUSH1 0x2 SWAP1 DIV SWAP1 PUSH1 0x0 MSTORE PUSH1 0x20 PUSH1 0x0 KECCAK256 SWAP1 PUSH1 0x1F ADD PUSH1 0x20 SWAP1 DIV DUP2 ADD SWAP3 DUP3 PUSH1 0x1F LT PUSH2 0x2B1 JUMPI DUP1 MLOAD PUSH1 0xFF NOT AND DUP4 DUP1 ADD OR DUP6 SSTORE PUSH2 0x2DF JUMP JUMPDEST DUP3 DUP1 ADD PUSH1 0x1 ADD DUP6 SSTORE DUP3 ISZERO PUSH2 0x2DF JUMPI SWAP2 DUP3 ADD JUMPDEST DUP3 DUP2 GT ISZERO PUSH2 0x2DE JUMPI DUP3 MLOAD DUP3 SSTORE SWAP2 PUSH1 0x20 ADD SWAP2 SWAP1 PUSH1 0x1 ADD SWAP1 PUSH2 0x2C3 JUMP JUMPDEST JUMPDEST POP SWAP1 POP PUSH2 0x2EC SWAP2 SWAP1 PUSH2 0x2F0 JUMP JUMPDEST POP SWAP1 JUMP JUMPDEST PUSH2 0x312 SWAP2 SWAP1 JUMPDEST DUP1 DUP3 GT ISZERO PUSH2 0x30E JUMPI PUSH1 0x0 DUP2 PUSH1 0x0 SWAP1 SSTORE POP PUSH1 0x1 ADD PUSH2 0x2F6 JUMP JUMPDEST POP SWAP1 JUMP JUMPDEST SWAP1 JUMP JUMPDEST PUSH2 0x6EB DUP1 PUSH2 0x324 PUSH1 0x0 CODECOPY PUSH1 0x0 RETURN INVALID PUSH1 0x80 PUSH1 0x40 MSTORE PUSH1 0x4 CALLDATASIZE LT PUSH2 0x7B JUMPI PUSH1 0x0 CALLDATALOAD PUSH1 0xE0 SHR DUP1 PUSH4 0x934AA023 GT PUSH2 0x4E JUMPI DUP1 PUSH4 0x934AA023 EQ PUSH2 0x222 JUMPI DUP1 PUSH4 0xCBEDBF5A EQ PUSH2 0x279 JUMPI DUP1 PUSH4 0xD35590C2 EQ PUSH2 0x290 JUMPI DUP1 PUSH4 0xED88C68E EQ PUSH2 0x32F JUMPI PUSH2 0x7B JUMP JUMPDEST DUP1 PUSH4 0x36F89BCD EQ PUSH2 0x80 JUMPI DUP1 PUSH4 0x3C4101FB EQ PUSH2 0x110 JUMPI DUP1 PUSH4 0x61203265 EQ PUSH2 0x1A0 JUMPI DUP1 PUSH4 0x78E97925 EQ PUSH2 0x1F7 JUMPI JUMPDEST PUSH1 0x0 DUP1 REVERT JUMPDEST CALLVALUE DUP1 ISZERO PUSH2 0x8C JUMPI PUSH1 0x0 DUP1 REVERT JUMPDEST POP PUSH2 0x95 PUSH2 0x339 JUMP JUMPDEST PUSH1 0x40 MLOAD DUP1 DUP1 PUSH1 0x20 ADD DUP3 DUP2 SUB DUP3 MSTORE DUP4 DUP2 DUP2 MLOAD DUP2 MSTORE PUSH1 0x20 ADD SWAP2 POP DUP1 MLOAD SWAP1 PUSH1 0x20 ADD SWAP1 DUP1 DUP4 DUP4 PUSH1 0x0 JUMPDEST DUP4 DUP2 LT ISZERO PUSH2 0xD5 JUMPI DUP1 DUP3 ADD MLOAD DUP2 DUP5 ADD MSTORE PUSH1 0x20 DUP2 ADD SWAP1 POP PUSH2 0xBA JUMP JUMPDEST POP POP POP POP SWAP1 POP SWAP1 DUP2 ADD SWAP1 PUSH1 0x1F AND DUP1 ISZERO PUSH2 0x102 JUMPI DUP1 DUP3 SUB DUP1 MLOAD PUSH1 0x1 DUP4 PUSH1 0x20 SUB PUSH2 0x100 EXP SUB NOT AND DUP2 MSTORE PUSH1 0x20 ADD SWAP2 POP JUMPDEST POP SWAP3 POP POP POP PUSH1 0x40 MLOAD DUP1 SWAP2 SUB SWAP1 RETURN JUMPDEST CALLVALUE DUP1 ISZERO PUSH2 0x11C JUMPI PUSH1 0x0 DUP1 REVERT JUMPDEST POP PUSH2 0x125 PUSH2 0x3D7 JUMP JUMPDEST PUSH1 0x40 MLOAD DUP1 DUP1 PUSH1 0x20 ADD DUP3 DUP2 SUB DUP3 MSTORE DUP4 DUP2 DUP2 MLOAD DUP2 MSTORE PUSH1 0x20 ADD SWAP2 POP DUP1 MLOAD SWAP1 PUSH1 0x20 ADD SWAP1 DUP1 DUP4 DUP4 PUSH1 0x0 JUMPDEST DUP4 DUP2 LT ISZERO PUSH2 0x165 JUMPI DUP1 DUP3 ADD MLOAD DUP2 DUP5 ADD MSTORE PUSH1 0x20 DUP2 ADD SWAP1 POP PUSH2 0x14A JUMP JUMPDEST POP POP POP POP SWAP1 POP SWAP1 DUP2 ADD SWAP1 PUSH1 0x1F AND DUP1 ISZERO PUSH2 0x192 JUMPI DUP1 DUP3 SUB DUP1 MLOAD PUSH1 0x1 DUP4 PUSH1 0x20 SUB PUSH2 0x100 EXP SUB NOT AND DUP2 MSTORE PUSH1 0x20 ADD SWAP2 POP JUMPDEST POP SWAP3 POP POP POP PUSH1 0x40 MLOAD DUP1 SWAP2 SUB SWAP1 RETURN JUMPDEST CALLVALUE DUP1 ISZERO PUSH2 0x1AC JUMPI PUSH1 0x0 DUP1 REVERT JUMPDEST POP PUSH2 0x1B5 PUSH2 0x475 JUMP JUMPDEST PUSH1 0x40 MLOAD DUP1 DUP3 PUSH20 0xFFFFFFFFFFFFFFFFFFFFFFFFFFFFFFFFFFFFFFFF AND PUSH20 0xFFFFFFFFFFFFFFFFFFFFFFFFFFFFFFFFFFFFFFFF AND DUP2 MSTORE PUSH1 0x20 ADD SWAP2 POP POP PUSH1 0x40 MLOAD DUP1 SWAP2 SUB SWAP1 RETURN JUMPDEST CALLVALUE DUP1 ISZERO PUSH2 0x203 JUMPI PUSH1 0x0 DUP1 REVERT JUMPDEST POP PUSH2 0x20C PUSH2 0x49A JUMP JUMPDEST PUSH1 0x40 MLOAD DUP1 DUP3 DUP2 MSTORE PUSH1 0x20 ADD SWAP2 POP POP PUSH1 0x40 MLOAD DUP1 SWAP2 SUB SWAP1 RETURN JUMPDEST CALLVALUE DUP1 ISZERO PUSH2 0x22E JUMPI PUSH1 0x0 DUP1 REVERT JUMPDEST POP PUSH2 0x237 PUSH2 0x4A0 JUMP JUMPDEST PUSH1 0x40 MLOAD DUP1 DUP3 PUSH20 0xFFFFFFFFFFFFFFFFFFFFFFFFFFFFFFFFFFFFFFFF AND PUSH20 0xFFFFFFFFFFFFFFFFFFFFFFFFFFFFFFFFFFFFFFFF AND DUP2 MSTORE PUSH1 0x20 ADD SWAP2 POP POP PUSH1 0x40 MLOAD DUP1 SWAP2 SUB SWAP1 RETURN JUMPDEST CALLVALUE DUP1 ISZERO PUSH2 0x285 JUMPI PUSH1 0x0 DUP1 REVERT JUMPDEST POP PUSH2 0x28E PUSH2 0x4C6 JUMP JUMPDEST STOP JUMPDEST CALLVALUE DUP1 ISZERO PUSH2 0x29C JUMPI PUSH1 0x0 DUP1 REVERT JUMPDEST POP PUSH2 0x2DF PUSH1 0x4 DUP1 CALLDATASIZE SUB PUSH1 0x20 DUP2 LT ISZERO PUSH2 0x2B3 JUMPI PUSH1 0x0 DUP1 REVERT JUMPDEST DUP2 ADD SWAP1 DUP1 DUP1 CALLDATALOAD PUSH20 0xFFFFFFFFFFFFFFFFFFFFFFFFFFFFFFFFFFFFFFFF AND SWAP1 PUSH1 0x20 ADD SWAP1 SWAP3 SWAP2 SWAP1 POP POP POP PUSH2 0x592 JUMP JUMPDEST PUSH1 0x40 MLOAD DUP1 DUP5 PUSH20 0xFFFFFFFFFFFFFFFFFFFFFFFFFFFFFFFFFFFFFFFF AND PUSH20 0xFFFFFFFFFFFFFFFFFFFFFFFFFFFFFFFFFFFFFFFF AND DUP2 MSTORE PUSH1 0x20 ADD DUP4 DUP2 MSTORE PUSH1 0x20 ADD DUP3 DUP2 MSTORE PUSH1 0x20 ADD SWAP4 POP POP POP POP PUSH1 0x40 MLOAD DUP1 SWAP2 SUB SWAP1 RETURN JUMPDEST PUSH2 0x337 PUSH2 0x5DC JUMP JUMPDEST STOP JUMPDEST PUSH1 0x3 DUP1 SLOAD PUSH1 0x1 DUP2 PUSH1 0x1 AND ISZERO PUSH2 0x100 MUL SUB AND PUSH1 0x2 SWAP1 DIV DUP1 PUSH1 0x1F ADD PUSH1 0x20 DUP1 SWAP2 DIV MUL PUSH1 0x20 ADD PUSH1 0x40 MLOAD SWAP1 DUP2 ADD PUSH1 0x40 MSTORE DUP1 SWAP3 SWAP2 SWAP1 DUP2 DUP2 MSTORE PUSH1 0x20 ADD DUP3 DUP1 SLOAD PUSH1 0x1 DUP2 PUSH1 0x1 AND ISZERO PUSH2 0x100 MUL SUB AND PUSH1 0x2 SWAP1 DIV DUP1 ISZERO PUSH2 0x3CF JUMPI DUP1 PUSH1 0x1F LT PUSH2 0x3A4 JUMPI PUSH2 0x100 DUP1 DUP4 SLOAD DIV MUL DUP4 MSTORE SWAP2 PUSH1 0x20 ADD SWAP2 PUSH2 0x3CF JUMP JUMPDEST DUP3 ADD SWAP2 SWAP1 PUSH1 0x0 MSTORE PUSH1 0x20 PUSH1 0x0 KECCAK256 SWAP1 JUMPDEST DUP2 SLOAD DUP2 MSTORE SWAP1 PUSH1 0x1 ADD SWAP1 PUSH1 0x20 ADD DUP1 DUP4 GT PUSH2 0x3B2 JUMPI DUP3 SWAP1 SUB PUSH1 0x1F AND DUP3 ADD SWAP2 JUMPDEST POP POP POP POP POP DUP2 JUMP JUMPDEST PUSH1 0x2 DUP1 SLOAD PUSH1 0x1 DUP2 PUSH1 0x1 AND ISZERO PUSH2 0x100 MUL SUB AND PUSH1 0x2 SWAP1 DIV DUP1 PUSH1 0x1F ADD PUSH1 0x20 DUP1 SWAP2 DIV MUL PUSH1 0x20 ADD PUSH1 0x40 MLOAD SWAP1 DUP2 ADD PUSH1 0x40 MSTORE DUP1 SWAP3 SWAP2 SWAP1 DUP2 DUP2 MSTORE PUSH1 0x20 ADD DUP3 DUP1 SLOAD PUSH1 0x1 DUP2 PUSH1 0x1 AND ISZERO PUSH2 0x100 MUL SUB AND PUSH1 0x2 SWAP1 DIV DUP1 ISZERO PUSH2 0x46D JUMPI DUP1 PUSH1 0x1F LT PUSH2 0x442 JUMPI PUSH2 0x100 DUP1 DUP4 SLOAD DIV MUL DUP4 MSTORE SWAP2 PUSH1 0x20 ADD SWAP2 PUSH2 0x46D JUMP JUMPDEST DUP3 ADD SWAP2 SWAP1 PUSH1 0x0 MSTORE PUSH1 0x20 PUSH1 0x0 KECCAK256 SWAP1 JUMPDEST DUP2 SLOAD DUP2 MSTORE SWAP1 PUSH1 0x1 ADD SWAP1 PUSH1 0x20 ADD DUP1 DUP4 GT PUSH2 0x450 JUMPI DUP3 SWAP1 SUB PUSH1 0x1F AND DUP3 ADD SWAP2 JUMPDEST POP POP POP POP POP DUP2 JUMP JUMPDEST PUSH1 0x0 DUP1 SWAP1 SLOAD SWAP1 PUSH2 0x100 EXP SWAP1 DIV PUSH20 0xFFFFFFFFFFFFFFFFFFFFFFFFFFFFFFFFFFFFFFFF AND DUP2 JUMP JUMPDEST PUSH1 0x4 SLOAD DUP2 JUMP JUMPDEST PUSH1 0x1 PUSH1 0x0 SWAP1 SLOAD SWAP1 PUSH2 0x100 EXP SWAP1 DIV PUSH20 0xFFFFFFFFFFFFFFFFFFFFFFFFFFFFFFFFFFFFFFFF AND DUP2 JUMP JUMPDEST PUSH1 0x0 DUP1 SWAP1 SLOAD SWAP1 PUSH2 0x100 EXP SWAP1 DIV PUSH20 0xFFFFFFFFFFFFFFFFFFFFFFFFFFFFFFFFFFFFFFFF AND PUSH20 0xFFFFFFFFFFFFFFFFFFFFFFFFFFFFFFFFFFFFFFFF AND CALLER PUSH20 0xFFFFFFFFFFFFFFFFFFFFFFFFFFFFFFFFFFFFFFFF AND EQ PUSH2 0x51F JUMPI PUSH1 0x0 DUP1 REVERT JUMPDEST PUSH2 0x54A PUSH1 0x1 PUSH1 0x0 SWAP1 SLOAD SWAP1 PUSH2 0x100 EXP SWAP1 DIV PUSH20 0xFFFFFFFFFFFFFFFFFFFFFFFFFFFFFFFFFFFFFFFF AND PUSH2 0x6AC JUMP JUMPDEST PUSH20 0xFFFFFFFFFFFFFFFFFFFFFFFFFFFFFFFFFFFFFFFF AND PUSH2 0x8FC SELFBALANCE SWAP1 DUP2 ISZERO MUL SWAP1 PUSH1 0x40 MLOAD PUSH1 0x0 PUSH1 0x40 MLOAD DUP1 DUP4 SUB DUP2 DUP6 DUP9 DUP9 CALL SWAP4 POP POP POP POP ISZERO DUP1 ISZERO PUSH2 0x58F JUMPI RETURNDATASIZE PUSH1 0x0 DUP1 RETURNDATACOPY RETURNDATASIZE PUSH1 0x0 REVERT JUMPDEST POP JUMP JUMPDEST PUSH1 0x5 PUSH1 0x20 MSTORE DUP1 PUSH1 0x0 MSTORE PUSH1 0x40 PUSH1 0x0 KECCAK256 PUSH1 0x0 SWAP2 POP SWAP1 POP DUP1 PUSH1 0x0 ADD PUSH1 0x0 SWAP1 SLOAD SWAP1 PUSH2 0x100 EXP SWAP1 DIV PUSH20 0xFFFFFFFFFFFFFFFFFFFFFFFFFFFFFFFFFFFFFFFF AND SWAP1 DUP1 PUSH1 0x1 ADD SLOAD SWAP1 DUP1 PUSH1 0x2 ADD SLOAD SWAP1 POP DUP4 JUMP JUMPDEST PUSH1 0x40 MLOAD DUP1 PUSH1 0x60 ADD PUSH1 0x40 MSTORE DUP1 CALLER PUSH20 0xFFFFFFFFFFFFFFFFFFFFFFFFFFFFFFFFFFFFFFFF AND DUP2 MSTORE PUSH1 0x20 ADD CALLVALUE DUP2 MSTORE PUSH1 0x20 ADD TIMESTAMP DUP2 MSTORE POP PUSH1 0x5 PUSH1 0x0 CALLER PUSH20 0xFFFFFFFFFFFFFFFFFFFFFFFFFFFFFFFFFFFFFFFF AND PUSH20 0xFFFFFFFFFFFFFFFFFFFFFFFFFFFFFFFFFFFFFFFF AND DUP2 MSTORE PUSH1 0x20 ADD SWAP1 DUP2 MSTORE PUSH1 0x20 ADD PUSH1 0x0 KECCAK256 PUSH1 0x0 DUP3 ADD MLOAD DUP2 PUSH1 0x0 ADD PUSH1 0x0 PUSH2 0x100 EXP DUP2 SLOAD DUP2 PUSH20 0xFFFFFFFFFFFFFFFFFFFFFFFFFFFFFFFFFFFFFFFF MUL NOT AND SWAP1 DUP4 PUSH20 0xFFFFFFFFFFFFFFFFFFFFFFFFFFFFFFFFFFFFFFFF AND MUL OR SWAP1 SSTORE POP PUSH1 0x20 DUP3 ADD MLOAD DUP2 PUSH1 0x1 ADD SSTORE PUSH1 0x40 DUP3 ADD MLOAD DUP2 PUSH1 0x2 ADD SSTORE SWAP1 POP POP JUMP JUMPDEST PUSH1 0x0 DUP2 SWAP1 POP SWAP2 SWAP1 POP JUMP INVALID LOG2 PUSH6 0x627A7A723158 KECCAK256 SLOAD PUSH30 0x21A63BF3CF2271CC5CF17D67349790109FC397560095FC13F060C63097EF PUSH5 0x736F6C6343 STOP SDIV GT STOP ORIGIN "
				},
				"gasEstimates": {
					"creation": {
						"codeDepositCost": "354200",
						"executionCost": "infinite",
						"totalCost": "infinite"
					},
					"external": {
						"charity()": "1053",
						"charityName()": "infinite",
						"donate()": "61289",
						"organizer()": "1098",
						"organizerName()": "infinite",
						"sendMoney()": "infinite",
						"sponsors(address)": "2939",
						"startTime()": "1072"
					},
					"internal": {
						"make_payable(address)": "28"
					}
				},
				"methodIdentifiers": {
					"charity()": "934aa023",
					"charityName()": "36f89bcd",
					"donate()": "ed88c68e",
					"organizer()": "61203265",
					"organizerName()": "3c4101fb",
					"sendMoney()": "cbedbf5a",
					"sponsors(address)": "d35590c2",
					"startTime()": "78e97925"
				}
			},
			"storageLayout": {
				"storage": [
					{
						"astId": 3,
						"contract": "Example1.sol:example1",
						"label": "organizer",
						"offset": 0,
						"slot": "0",
						"type": "t_address"
					},
					{
						"astId": 5,
						"contract": "Example1.sol:example1",
						"label": "charity",
						"offset": 0,
						"slot": "1",
						"type": "t_address"
					},
					{
						"astId": 7,
						"contract": "Example1.sol:example1",
						"label": "organizerName",
						"offset": 0,
						"slot": "2",
						"type": "t_string_storage"
					},
					{
						"astId": 9,
						"contract": "Example1.sol:example1",
						"label": "charityName",
						"offset": 0,
						"slot": "3",
						"type": "t_string_storage"
					},
					{
						"astId": 11,
						"contract": "Example1.sol:example1",
						"label": "startTime",
						"offset": 0,
						"slot": "4",
						"type": "t_uint256"
					},
					{
						"astId": 22,
						"contract": "Example1.sol:example1",
						"label": "sponsors",
						"offset": 0,
						"slot": "5",
						"type": "t_mapping(t_address,t_struct(sponsor)18_storage)"
					}
				],
				"types": {
					"t_address": {
						"encoding": "inplace",
						"label": "address",
						"numberOfBytes": "20"
					},
					"t_mapping(t_address,t_struct(sponsor)18_storage)": {
						"encoding": "mapping",
						"key": "t_address",
						"label": "mapping(address => struct example1.sponsor)",
						"numberOfBytes": "32",
						"value": "t_struct(sponsor)18_storage"
					},
					"t_string_storage": {
						"encoding": "bytes",
						"label": "string",
						"numberOfBytes": "32"
					},
					"t_struct(sponsor)18_storage": {
						"encoding": "inplace",
						"label": "struct example1.sponsor",
						"members": [
							{
								"astId": 13,
								"contract": "Example1.sol:example1",
								"label": "sponsorAddress",
								"offset": 0,
								"slot": "0",
								"type": "t_address"
							},
							{
								"astId": 15,
								"contract": "Example1.sol:example1",
								"label": "sponsorMoney",
								"offset": 0,
								"slot": "1",
								"type": "t_uint256"
							},
							{
								"astId": 17,
								"contract": "Example1.sol:example1",
								"label": "sponsorTime",
								"offset": 0,
								"slot": "2",
								"type": "t_uint256"
							}
						],
						"numberOfBytes": "96"
					},
					"t_uint256": {
						"encoding": "inplace",
						"label": "uint256",
						"numberOfBytes": "32"
					}
				}
			},
			"userdoc": {
				"methods": {}
			}
		}
	}
}